S0130000526F736153656E736F72732E737265638F
S11300000C944B000C9473000C9473000C947300C8
S11300100C9473000C9473000C9473000C94730090
S11300200C9473000C9473000C9473000C94730080
S11300300C9473000C9473000C9473000C94730070
S11300400C9473000C9473000C9473000C94730060
S11300500C9473000C9473000C9473000C94730050
S11300600C9473000C9473000C9473000C94730040
S11300700C9473000C9473000C9473000C94730030
S11300800C9473000C9473000C9473000C94730020
S11300900C947300120211241FBECFEFD0E1DEBF17
S11300A0CDBF11E0A0E0B1E0E6EDFAE002C00590BA
S11300B00D92A630B107D9F721E0A6E0B1E001C066
S11300C01D92A232B207E1F710E0C6E9D0E004C005
S11300D02297FE010E943E04C439D107C9F70E9449
S11300E081020C9469050C940000CF92DF92EF9288
S11300F0FF920F931F93CF93DF938C01C62EFC01C5
S1130100A281B381ED91FC911197608121E030E0EF
S1130110C90112960C9002C0880F991F0A94E2F745
S1130120862B8083F801E080F180CC2051F0C42F2D
S1130130D52FD12C6991C7010E94DE01D394DC1024
S1130140F9CFF801808191810E94F1018111F9CFE9
S1130150F801A281B381ED91FC911197208181E096
S113016090E012960C9002C0880F991F0A94E2F74F
S1130170809582238083DF91CF911F910F91FF900F
S1130180EF90DF90CF900895BF92CF92DF92EF92DD
S1130190FF920F931F93CF93DF937C01EB016A01CE
S11301A0122F602FFC01A481B581ED91FC91119770
S11301B0208181E090E012960C9002C0880F991F74
S11301C00A94E2F7809582238083F70180819181EC
S11301D00E947A01082F811102C018822AC0B880B7
S11301E081E088838B1580F4A601480F511D612F8F
S11301F0F701808191810E947A018823C9F0888166
S11302008F5F88838B1580F3F701A481B581ED910D
S1130210FC911197808141E050E09A0112960C9074
S113022002C0220F331F0A94E2F7282B208301C057
S1130230082F802FDF91CF911F910F91FF90EF90A6
S1130240DF90CF90BF9008950F931F93CF93DF93C8
S1130250EC010E811F81EA85FB8580819181A28159
S1130260B381880F991FAA1FBB1F880F991FAA1F4C
S1130270BB1F9C01AD01220F331F441F551F220FCA
S1130280331F441F551F60E072E18AE790E00E942B
S11302901A0421503109F80131832083EC81FD8156
S11302A0AA85BB8515968C91880F880F880F866068
S11302B08083EA81FB8188E18083DF91CF911F9164
S11302C00F910895DC01ED91FC9120812223ECF73C
S11302D0DC011896ED91FC911997808161157105E7
S11302E041F02C7121F491E0FB0190830895DB012E
S11302F01C9208951092810010928500109284003F
S113030070E0660F771F660F771F660F771F709375
S1130310890060938800B19B02C022E026BB25E0DF
S113032020938100DC01ED91FC9108C0B19B06C0D3
S11303301092810082E086BB80E008952081222310
S1130340ACF710928100DC011896ED91FC9119979D
S11303508081FA0180832C7181E009F080E00895A6
S1130360CF92DF92EF92FF920F931F93CF93DF937D
S11303708C01EB017A01C22ED88060E070E00E940B
S11303806201F701808381E088838D1570F4A701F1
S1130390480F511D6C2DC8010E947A01882329F051
S11303A088818F5F88838D1590F3DF91CF911F91A2
S11303B00F91FF90EF90DF90CF900895DC01ED91C5
S11303C0FC911197808180648083ED91FC91119759
S11303D0808185FFFDCF1896ED91FC91199760837C
S11303E00895DC01ED91FC91808186FF05C0808138
S11303F08064808380E0089581E00895CF93DF9343
S1130400DC01ED91FC9111972081222344F418968C
S11304100D90BC91A02D8C9180818823E4F3DF9111
S1130420CF910895CF92DF92EF92FF9288EC90E003
S1130430909313018093120189EC90E0909315013D
S1130440809314018AEC90E0909317018093160135
S11304508CEC90E090931901809318018EEC90E05D
S113046090931B0180931A0188E090E00E9442045B
S1130470FC0190931D0180931C010F2EF0E8CF2EF8
S1130480F5E2DF2EE12CF12CF02DC082D182E28244
S1130490F382148215821782168280EC90E0909386
S11304A007018093060181EC90E090930901809309
S11304B0080182EC90E090930B0180930A0184EC94
S11304C090E090930D0180930C0186EC90E0909362
S11304D00F0180930E0188E090E00E944204FC0129
S11304E09093110180931001C082D182E282F38241
S11304F01482158217821682FF90EF90DF90CF90BE
S11305000895CF93DF93CDB7DEB7A3970FB6F894D2
S1130510DEBF0FBECDBFE1E6F0E080E8808310824D
S1130520E0911C01F0911D0180E990EDA3E0B0E0A1
S113053080839183A283B383E0911001F091110130
S113054080E895E2A0E0B0E080839183A283B38346
S113055082E191E00E94240186E091E00E9424015E
S1130560109A089A28E230E0469A3E9A179A0F9A0F
S1130570169A0E9A409A389A429A3A9A38A32F8F2A
S113058084E089A3449AEF8DF8A1629181E090E020
S1130590AC0109A002C0440F551F0A94E2F7462B90
S11305A040834298409816981798109846983D8F23
S11305B02C8F25E02E8F459AEC8DFD8D42919C0168
S11305C00E8C02C0220F331F0A94E2F7242B2083DF
S11305D026E031E03E8B2D8B9E01215E3F4F388F0C
S11305E02F8B235031093A8F298FEF8DF8A1408149
S11305F09C0109A002C0220F331F0A94E2F7209540
S113060024232083A98DBA8DED91FC91119720812B
S113061012960C9002C0880F991F0A94E2F7822B5D
S113062080831B8ECE0145960E944C03CE01019619
S11306307C010F2EFAE0DF2EF02DA82EBF2CDBA2BA
S1130640DAA22D2DAE01455F5F4FBE016D5D7F4F78
S113065082E191E00E94B0018E010E5D1F4F2A2DB0
S11306603B2D4BA1BE01655F7F4FCE0145960E9495
S1130670E203882321F3CAA0CC2009F30A2D1B2D01
S1130680F80161918F0182E191E00E94DE01802FE7
S11306908E198C15A8F3D3CFEF92FF920F93CF93BB
S11306A0DF93CDB7DEB72F970FB6F894DEBF0FBE3A
S11306B0CDBF7C018AEF8B8780E38C8784E08D87B4
S11306C083E48E87AE01455F5F4F64E0C7010E94FB
S11306D075008AE08F8704E621E0AE014F5F5F4F2B
S11306E0BE01615F7F4FC7010E94C400811109C030
S11306F0EFECF7E03197F1F700C00000F701168244
S113070055C0EFECF7E03197F1F700C000002F85FA
S113071030E0B90162507109FE01E60FF71FE18173
S1130720F0E0FE2FEE27DE01A20FB31F9C91E90F2C
S1130730F11D161617060CF02AC040E050E090E0B8
S11307402FEF3FEFA1E0B0E0AC0FBD1FA40FB51F2A
S11307504C912427422F42954227042E46954695D4
S11307604025042E469540254770022E232F46959A
S113077007944795302D2427069447953025242740
S11307809F5F492F50E046175707E4F202C02FEF4E
S11307903FEF2E173F0719F49A81903321F0F701A8
S11307A0168280E003C091E0F70196832F960FB67E
S11307B0F894DEBF0FBECDBFDF91CF910F91FF90B4
S11307C0EF9008959F92AF92BF92CF92DF92EF92F3
S11307D0FF920F931F93CF93DF93EC015B01942E51
S11307E069017801888199810E94FE01A501692D22
S11307F0CE010E94750004E622E0A601B701CE01F5
S11308000E94C4008FEC97E00197F1F700C000004C
S113081081E0F7019081911101C080E0DF91CF91D7
S11308201F910F91FF90EF90DF90CF90BF90AF900A
S11308309F900895A1E21A2EAA1BBB1BFD010DC0B7
S1130840AA1FBB1FEE1FFF1FA217B307E407F5077C
S113085020F0A21BB30BE40BF50B661F771F881F58
S1130860991F1A9469F760957095809590959B01EE
S1130870AC01BD01CF010895EE0FFF1F0590F49167
S1130880E02D0994CF93DF938230910510F482E038
S113089090E0E0912001F091210120E030E0A0E01F
S11308A0B0E0309739F14081518148175907B8F0C9
S11308B04817590771F482819381109729F0139690
S11308C09C938E9312972CC09093210180932001C6
S11308D027C02115310531F04217530718F0A9013B
S11308E0DB0101C0EF019A01BD01DF010280F38148
S11308F0E02DD7CF21153105F9F0281B390B243011
S1130900310580F48A819B816115710521F0FB0119
S11309109383828304C09093210180932001FE017C
S1130920329644C0FE01E20FF31F8193919322504B
S11309303109398328833AC020911E0130911F0167
S1130940232B41F4209102013091030130931F01C4
S113095020931E01209100013091010121153105E0
S113096041F42DB73EB74091040150910501241B79
S1130970350BE0911E01F0911F01E217F307A0F47B
S11309802E1B3F0B2817390778F0AC014E5F5F4FE1
S11309902417350748F04E0F5F1F50931F014093F3
S11309A01E018193919302C0E0E0F0E0CF01DF915A
S11309B0CF910895CF93DF93009709F487C0FC018A
S11309C0329713821282C0912001D0912101209785
S11309D081F420813181280F391F80911E0190916B
S11309E01F018217930779F5F0931F01E0931E010D
S11309F06DC0DE0120E030E0AE17BF0750F4129660
S1130A004D915C9113979D014115510509F1DA014E
S1130A10F3CFB383A28340815181840F951F8A173A
S1130A209B0771F48D919C911197840F951F0296E9
S1130A309183808312968D919C91139793838283E3
S1130A402115310529F4F0932101E09320013EC0E2
S1130A50D9011396FC93EE9312974D915D91A40FD7
S1130A60B51FEA17FB0779F480819181840F951FE4
S1130A700296D90111969C938E9382819381139649
S1130A809C938E931297E0E0F0E08A819B8100971B
S1130A9019F0FE01EC01F9CFCE01029628813981CB
S1130AA0820F931F20911E0130911F0128173907CF
S1130AB069F4309729F4109221011092200102C0A8
S1130AC013821282D0931F01C0931E01DF91CF9134
S1090AD00895F894FFCF25
S1090AD6000022012000D3
S9030000FC
