:100000000C944C000C9474000C9474000C947400C8
:100010000C9474000C9474000C9474000C94740090
:100020000C9474000C9474000C9474000C94740080
:100030000C9474000C9474000C9474000C94740070
:100040000C9474000C9474000C9474000C94740060
:100050000C9474000C9474000C9474000C94740050
:100060000C9474000C9474000C9474000C94740040
:100070000C9474000C9474000C9474000C94740030
:100080000C9474000C9474000C9474000C94740020
:100090000C947400CE02100411241FBECFEFD0E1E7
:1000A000DEBFCDBF11E0A0E0B1E0EAE6F3E102C0BF
:1000B00005900D92AE31B107D9F721E0AEE1B1E084
:1000C00001C01D92AB36B207E1F710E0C8E9D0E0FD
:1000D00004C02297FE010E945C08C439D107C9F709
:1000E0000E9496040C94B3090C940000662399F0C6
:1000F000DC01ED91FC911197408121E030E0B901E4
:1001000012960C9002C0660F771F0A94E2F7CB019B
:10011000842B80830895DC01ED91FC91119740813F
:1001200021E030E0B90112960C9002C0660F771FF3
:100130000A94E2F7CB018095842380830895EF929F
:10014000FF920F931F93CF93DF938C01FC01A28149
:10015000B381ED91FC911197708121E030E0C901EC
:1001600012960C9002C0880F991F0A94E2F7872B11
:100170008083662391F0C42FD52F61507E01E60E57
:10018000F11CFFEFEF1AFF0A6991F801808191815C
:100190000E949A02CE15DF05B9F7F801808191819E
:1001A0000E94AD028111F9CFF801A281B381ED91D6
:1001B000FC911197208181E090E012960C9002C092
:1001C000880F991F0A94E2F7809582238083DF913C
:1001D000CF911F910F91FF90EF9008954F925F92F2
:1001E0006F927F928F929F92AF92BF92CF92DF9247
:1001F000EF92FF920F931F93CF93DF93EC015B017C
:100200004A0128013901B701A601AC81BD81ED91F8
:10021000FC911197208181E090E012960C9002C031
:10022000880F991F0A94E2F78095822380839401B6
:10023000888199810E944E02882329F0F5018081EE
:10024000823028F418C0F501108280E027C011E048
:100250009401210F311DB301A201888199810E946F
:100260004E02811103C0F501108318C01F5FF50114
:100270008081181768F3AC81BD81ED91FC911197D5
:10028000408121E030E0C90112960C9002C0880F35
:10029000991F0A94E2F7842B808381E0DF91CF914C
:1002A0001F910F91FF90EF90DF90CF90BF90AF9094
:1002B0009F908F907F906F905F904F900895DF9206
:1002C000EF92FF920F931F93CF93DF938C01F62E43
:1002D000D42EE52E61E0FC01808191810E949A027A
:1002E0006F2DF801808191810E949A02FF2099F080
:1002F000CD2DDE2DFA94CE018F0D911D7C019FEF47
:10030000E91AF90A6991F801808191810E949A02A3
:10031000CE15DF05B9F762E0F801808191810E9476
:100320009A02DF91CF911F910F91FF90EF90DF9094
:100330000895BF92CF92DF92EF92FF920F931F9397
:10034000CF93DF93EC017B016A0140E050E061E074
:10035000888199810E9424028130B9F740E050E001
:1003600061E0888199810E942402F70180838823BB
:1003700091F0B12C86010B0D111D40E050E061E0C1
:10038000888199810E942402F8018083B394F70147
:100390008081B81678F340E050E061E0888199816F
:1003A0000E942402823011F08FEF01C080E0DF91C3
:1003B000CF911F910F91FF90EF90DF90CF90BF9062
:1003C00008950F931F93CF93DF93EC010E811F814C
:1003D000EA85FB8520813181C901A0E0B0E0880F6A
:1003E000991FAA1FBB1F880F991FAA1FBB1F9C0123
:1003F000AD01220F331F441F551F220F331F441F0F
:10040000551F60E072E18AE790E00E9438082150B1
:100410003109F80131832083EC81FD81AA85BB85F8
:1004200013968C9190E0880F991F880F991F880F61
:10043000991F86608083EA81FB8188E18083DF9158
:10044000CF911F910F910895662339F0DC01ED9152
:10045000FC9120812223ECF70DC0DC01ED91FC9191
:10046000208122233CF041155105B1F0FA011082A0
:1004700080E00895DC011896ED91FC911997808138
:100480004115510551F02C7121F491E0FA0190834E
:100490000895DA011C92089580E008950F931F9348
:1004A000CF93DF93EC01CB01BA0189011092810057
:1004B000109285001092840020E030E04AE754E476
:1004C0000E94F00620E034E244EF5AE40E94D5078F
:1004D00020E030E040E85AE30E94D5070E94580728
:1004E0007093890060938800B19B02C082E086BB54
:1004F00085E080938100E881F98108C0B19B06C046
:100500001092810082E086BB80E00FC0808188234A
:10051000ACF710928100E885F9859081F80190830D
:10052000982F9C7181E009F080E0DF91CF911F91BD
:100530000F910895DC01ED91FC9111978081806409
:100540008083ED91FC911197808185FFFDCF1896F6
:10055000ED91FC91199760830895DC01ED91FC9178
:10056000808186FF05C080818064808380E008955B
:1005700081E00895CF93DF93DC01ED91FC91119719
:100580002081222344F418960D90BC91A02D8C91CB
:1005900080818823E4F3DF91CF910895CF93DF9397
:1005A00088EC90E090932B0180932A0189EC90E0F5
:1005B00090932D0180932C018AEC90E090932F0171
:1005C00080932E018CEC90E0909331018093300168
:1005D0008EEC90E0909333018093320186E090E0BE
:1005E0000E946008E82FF92FF0933501E093340161
:1005F000C0E8D5E2D183C0831282138215821482AF
:1006000080EC90E090931F0180931E0181EC90E0BC
:10061000909321018093200182EC90E0909323013C
:100620008093220184EC90E0909325018093240133
:1006300086EC90E0909327018093260186E090E07D
:100640000E946008E82FF92FF0932901E093280118
:10065000D183C0831282138215821482DF91CF91DD
:100660000895CF93909164018091660189238093CE
:100670006401609165018091630168236093630167
:10068000C1E062FB662760F96C2780E691E00E947A
:1006900076006091630163FB662760F96C278DE546
:1006A00091E00E94760060916301629561706C2711
:1006B0008AE591E00E9476006091630165FB662700
:1006C00060F96C2787E591E00E94760060916301F4
:1006D00066FB662760F96C2784E591E00E9476004E
:1006E000609163016095661F6627661F81E591E052
:1006F0000E947600609164016C2761708EE491E045
:100700000E94760060916401669561706C278BE4AD
:1007100091E00E9476006091640162FB662760F9B7
:100720006C2788E491E00E9476006091640163FB8D
:10073000662760F96C2785E491E00E94760060915D
:100740006401629561706C2782E491E00E947600FA
:10075000CF91089515B887E084B91BB81AB81EB8B0
:100760001DB811BA10BA14BA13BA14BC16BC17BC0F
:1007700010928000109281001092850010928400E7
:1007800010928700109286001092890010928800C3
:1007900010928B0010928A0010928D0010928C00A3
:1007A0001092B6001092B0001092B2001092B300F6
:1007B0001092900010929100109295001092940067
:1007C0001092970010929600109299001092980043
:1007D00010929B0010929A0010929D0010929C0023
:1007E0001092690010926A001DBA10926E00109269
:1007F0006F00109270001092710080E880BF10921C
:100800007B001092D8009FEF909366018EEF80934B
:10081000650190936401809363010E943103089500
:1008200082E290E0909361018093600121E0209347
:100830006201119A099A90935E0180935D0132E002
:1008400030935F01129A0A9A90935B0180935A0148
:1008500043E040935C01139A0B9A90935801809364
:10086000570154E050935901149A0C9A90935501F2
:100870008093540155E050935601159A0D9A909328
:1008800052018093510156E050935301169A0E9AEB
:1008900090934F0180934E0187E080935001179A07
:1008A0000F9A88E290E090934C0180934B01109254
:1008B0004D01409A389A90934901809348012093C2
:1008C0004A01419A399A90934601809345013093A9
:1008D0004701429A3A9A9093430180934201409390
:1008E0004401439A3B9A85E290E0909340018093C3
:1008F0003F01409341012B9A239A90933D018093AD
:100900003C0130933E012A9A229A90933A018093B7
:10091000390120933B01299A219A909337018093C2
:10092000360110923801289A209A0895CF93DF93C8
:10093000CDB7DEB76D970FB6F894DEBF0FBECDBF53
:10094000E1E6F0E080E8808310820E94AA0328E2BA
:1009500030E03D8B2C8B84E08E8B449AEC89FD89B2
:10096000629181E090E0AC010E8802C0440F551FF7
:100970000A94E2F7462B40833A8B298B25E02B8B98
:10098000459AE989FA8922910B8802C0880F991F3C
:100990000A94E2F7822B8083469A3E9A109A089A2C
:1009A0001098469882E32FEF31EE94E021503040CA
:1009B0009040E1F700C000008150A9F785EA8B8FD5
:1009C00086EB8C8F8AE291E00E94E1018EE191E05A
:1009D0000E94E1018AE291E09A8F898F8EE191E095
:1009E0009B878A87CE0144969D878C87CE0141964E
:1009F0009F878E87EC89FD89408181E090E09C0192
:100A00000E8802C0220F331F0A94E2F72095242398
:100A10002083AE85BF85ED91FC91119720811296C0
:100A20000C9002C0880F991F0A94E2F7822B8083F2
:100A3000188ACE010A960E94530581E08D8F8EEEB2
:100A40008F8B8BEB888FBE016F5F7F4FCE010A9635
:100A50000E94FE05882349F0AE014F5F5F4F69E0B9
:100A6000CE0149960E945F0110C0AE01495E5F4F02
:100A700062E0CE0149960E945F01AE014F5F5F4F79
:100A800069E0CE0149960E945F01AE01455E5F4F6D
:100A9000BE01635E7F4FCE0149960E9499018B8D06
:100AA0008C3A99F7D0CFAF92BF92CF92DF92EF926C
:100AB000FF920F931F93CF93DF93CDB7DEB72F979E
:100AC0000FB6F894DEBF0FBECDBF5C018AEF8B87F7
:100AD00080E38C8784E08D8783E48E87AE01455F59
:100AE0005F4F64E08A2D9B2D0E949F008AE08F87D4
:100AF0000F2EC12CD12CF8ECEF2EF2E4FF2EF02DAE
:100B000006E616E626EE3FE3AE014F5F5F4FBE01FD
:100B1000615F7F4F8A2D9B2D0E94EE0081110AC0DC
:100B20008FEC97E00197F1F700C00000F501168205
:100B300080E053C08FEC97E00197F1F700C0000010
:100B40004F8550E0CA010297FE01E80FF91F31817D
:100B500020E0FE01E40FF51F4081B901640F711D13
:100B6000181619060CF02AC040E050E0E0E02FEF24
:100B70003FEFA1E0B0E0AC0FBD1FA40FB51F4C913B
:100B80002427422F42954227042E4695469540251C
:100B9000042E469540254770022E232F4695079434
:100BA0004795302D24270694479530252427EF5F5D
:100BB0004E2F50E048175907E4F202C02FEF3FEFE5
:100BC0002617370719F48A81803321F0F501168240
:100BD00080E003C081E0F50186832F960FB6F8947C
:100BE000DEBF0FBECDBFDF91CF911F910F91FF9060
:100BF000EF90DF90CF90BF90AF9008958F929F922B
:100C0000AF92BF92CF92DF92EF92FF920F931F931A
:100C1000CF93DF93CDB7DEB72F970FB6F894DEBF33
:100C20000FBECDBF4C015B0185E0E6E0F1E0DE01E7
:100C30001A9601900D928A95E1F7D4018D919C91BD
:100C40000E94BA02AE01465F5F4F65E0882D992D84
:100C50000E949F0089E08F870F2EC12CD12CFAEFC4
:100C6000EF2EF3E4FF2EF02D06E616E626EE3FE328
:100C7000A501BE01615F7F4F882D992D0E94EE0076
:100C8000811125C08F85853010F5EFECF7E03197A5
:100C9000F1F700C00000FE01319689E0DF011D92EE
:100CA0008A95E9F73F8522E129839AEA9A838BEBBB
:100CB0008B833C832D839E838F838BE1898789E09F
:100CC000D50101900D928A95E1F780E076C0EFECB6
:100CD000F7E03197F1F700C000004F8550E0950133
:100CE000240F351FF9013297908180E0F901319787
:100CF0002081BC01620F711D425051091416150666
:100D00002CF5A0E02FEF3FEFF501EA0FF11D8081F8
:100D10002827822F82958227082E86958695802502
:100D2000082E869580258770022E232F869507949E
:100D30008795302D28270694879530252827AF5F83
:100D40008A2F90E084179507FCF202C02FEF3FEF47
:100D50002617370799F089E0EBE0F1E0DE01119604
:100D600001900D928A95E1F789E0FE013196D50157
:100D700001900D928A95E1F780E01FC0D501119690
:100D80008C918823CCF48F77803219F4C4010E94AF
:100D9000530589E0E4E1F1E0DE01119601900D9246
:100DA0008A95E1F789E0FE013196D50101900D9217
:100DB0008A95E1F780E001C081E02F960FB6F894A4
:100DC000DEBF0FBECDBFDF91CF911F910F91FF907E
:100DD000EF90DF90CF90BF90AF909F908F9008954D
:100DE0000CD0A9C0A1D040F098D030F021F45F3FE2
:100DF00019F08AC05111D3C08DC0AED098F3992399
:100E0000C9F35523B1F3951B550BBB27AA276217CE
:100E10007307840738F09F5F5F4F220F331F441F13
:100E2000AA1FA9F333D00E2E3AF0E0E830D091504B
:100E30005040E695001CCAF729D0FE2F27D0660F38
:100E4000771F881FBB1F261737074807AB07B0E877
:100E500009F0BB0B802DBF01FF2793585F4F2AF08D
:100E60009E3F510568F050C09AC05F3FECF3983E3A
:100E7000DCF3869577956795B795F7959F5FC9F7EA
:100E8000880F911D9695879597F90895E1E0660F73
:100E9000771F881FBB1F621773078407BA0720F0EC
:100EA000621B730B840BBA0BEE1F88F7E095089555
:100EB0005BD088F09F5790F0B92F9927B751A0F0D9
:100EC000D1F0660F771F881F991F1AF0BA95C9F7DE
:100ED00012C0B13081F062D0B1E008955FC0672FD9
:100EE000782F8827B85F39F0B93FCCF3869577958E
:100EF0006795B395D9F73EF4909580957095619577
:100F00007F4F8F4F9F4F089597F99F6780E870E05C
:100F100060E008959FEF80EC089500240A9416166F
:100F2000170618060906089500240A9412161306D7
:100F3000140605060895092E0394000C11F4882365
:100F400052F0BB0F40F4BF2B11F460FF04C06F5F81
:100F50007F4F8F4F9F4F089557FD9058440F551F57
:100F600059F05F3F71F04795880F97FB991F61F02B
:100F70009F3F79F087950895121613061406551FA2
:100F8000F2CF4695F1DF08C0161617061806991F0E
:100F9000F1CF86957105610508940895E894BB2703
:100FA00066277727CB0197F908950BD0C4CFB5DF1B
:100FB00028F0BADF18F0952309F0A6CFABCF1124A3
:100FC000EECFCADFA0F3959FD1F3950F50E0551FE8
:100FD000629FF001729FBB27F00DB11D639FAA278E
:100FE000F00DB11DAA1F649F6627B00DA11D661FDD
:100FF000829F2227B00DA11D621F739FB00DA11DFE
:10100000621F839FA00D611D221F749F3327A00DB7
:10101000611D231F849F600D211D822F762F6A2F53
:1010200011249F5750408AF0E1F088234AF0EE0FD8
:10103000FF1FBB1F661F771F881F91505040A9F7E5
:101040009E3F510570F060CFAACF5F3FECF3983E12
:10105000DCF3869577956795B795F795E7959F5F4C
:10106000C1F7FE2B880F911D9695879597F90895E6
:10107000A1E21A2EAA1BBB1BFD010DC0AA1FBB1F9C
:10108000EE1FFF1FA217B307E407F50720F0A21B0E
:10109000B30BE40BF50B661F771F881F991F1A947B
:1010A00069F760957095809590959B01AC01BD01A5
:1010B000CF010895EE0FFF1F0590F491E02D0994E4
:1010C0000F931F93CF93DF938230910510F482E04A
:1010D00090E0E0916901F0916A0120E030E0C0E029
:1010E000D0E023C04081518148175907A8F0481724
:1010F000590761F482819381209719F09B838A8339
:101100002EC090936A018093690129C02115310591
:1011100029F04217530710F0A90102C0BE01DF01F8
:1011200002811381EF019A01F8013097D9F6211558
:10113000310509F1281B390B2430310590F4129642
:101140008D919C9113976115710521F0FB0193839B
:10115000828304C090936A0180936901FD013296F5
:1011600044C0FD01E20FF31F819391932250310996
:101170002D933C933AC02091670130916801232B55
:1011800041F42091020130910301309368012093D2
:10119000670120910001309101012115310541F4D1
:1011A0002DB73EB74091040150910501241B350B2A
:1011B000E0916701F0916801E217F307A0F42E1B9C
:1011C0003F0B2817390778F0AC014E5F5F4F2417AB
:1011D000350748F04E0F5F1F509368014093670139
:1011E0008193919302C0E0E0F0E0CF01DF91CF91D5
:1011F0001F910F910895EF92FF920F931F93CF933A
:10120000DF93009709F48FC0DC01129713961C92AC
:101210001E921297E0906901F0906A01E114F104C6
:1012200089F42D913C911197280F391F8091670106
:10123000909168018217930789F5B0936801A09394
:10124000670171C0E70120E030E001C0EA01CA1780
:10125000DB0738F44A815B819E0141155105B1F7E6
:1012600022C0BC0162507109FB01D383C28300819B
:101270001181AC01400F511F4C175D0761F448818B
:101280005981400F511F4E5F5F4F518340834A8108
:101290005B81538342832115310529F4B0936A01A0
:1012A000A093690140C0F901B383A283E901699168
:1012B0007991C60FD71FAC17BD0779F4DC015E9199
:1012C0004E91460F571F4E5F5F4F518340831296DA
:1012D0008D919C91139793838283A0E0B0E002C02C
:1012E000D7017C01F701828193810097C9F7C7017B
:1012F000029620813181820F931F209167013091E6
:1013000068012817390779F4109729F410926A01B7
:101310001092690104C013961C921E921297F092CB
:101320006801E0926701CDB7DEB7E6E00C94A4094E
:101330002A88398848885F846E847D848C849B8465
:10134000AA84B984C884DF80EE80FD800C811B8173
:10135000AA81B981CE0FD11D0FB6F894DEBF0FBEA2
:0A136000CDBFED010895F894FFCF12
:10136A0000006B012000FA4901A1A700AABBCCDD4D
:0E137A00EEFF9B4501020304050607711D00EE
:00000001FF
