S0130000526F736153656E736F72732E737265638F
S11300000C944C000C9474000C9474000C947400C4
S11300100C9474000C9474000C9474000C9474008C
S11300200C9474000C9474000C9474000C9474007C
S11300300C9474000C9474000C9474000C9474006C
S11300400C9474000C9474000C9474000C9474005C
S11300500C9474000C9474000C9474000C9474004C
S11300600C9474000C9474000C9474000C9474003C
S11300700C9474000C9474000C9474000C9474002C
S11300800C9474000C9474000C9474000C9474001C
S11300900C9474003C028B0311241FBECFEFD0E1FB
S11300A0DEBFCDBF11E0A0E0B1E0E2E4FEE002C0BB
S11300B005900D92A630B107D9F721E0A6E0B1E092
S11300C001C01D92A335B207E1F710E0C8E9D0E002
S11300D004C02297FE010E94F405C439D107C9F770
S11300E00E945C040C941F070C940000662399F092
S11300F0DC01ED91FC911197408121E030E0B901E0
S113010012960C9002C0660F771F0A94E2F7CB0197
S1130110842B80830895DC01ED91FC91119740813B
S113012021E030E0B90112960C9002C0660F771FEF
S11301300A94E2F7CB018095842380830895CF93BA
S1130140DF93EC01AA81BB81ED91FC911197708141
S113015021E030E0C90112960C9002C0880F991F6B
S11301600A94E2F7872B8083888199810E94210277
S1130170888199810E9400028111FACFAA81BB81F2
S1130180ED91FC911197208181E090E012960C9002
S113019002C0880F991F0A94E2F780958223808316
S11301A0DF91CF910895BF92CF92DF92EF92FF92A9
S11301B00F931F93CF93DF937C01EB016A01122FFE
S11301C0602FFC01A481B581ED91FC9111972081F0
S11301D081E090E012960C9002C0880F991F0A9457
S11301E0E2F7809582238083F701808191810E94C8
S11301F08901082F811102C018822AC0B88081E0C9
S113020088838B1580F4A601480F511D612FF701D7
S1130210808191810E9489018823C9F088818F5F40
S113022088838B1580F3F701A481B581ED91FC914E
S11302301197808141E050E09A0112960C9002C01F
S1130240220F331F0A94E2F7282B208301C0082FC2
S1130250802FDF91CF911F910F91FF90EF90DF904E
S1130260CF90BF9008950F931F93CF93DF93EC012A
S11302700E811F81EA85FB8580819181A281B381F2
S1130280880F991FAA1FBB1F880F991FAA1FBB1F86
S11302909C01AD01220F331F441F551F220F331F32
S11302A0441F551F60E072E18AE790E00E94D00588
S11302B021503109F80131832083EC81FD81AA8525
S11302C0BB8515968C91880F880F880F8660808374
S11302D0EA81FB8188E18083DF91CF911F910F91A7
S11302E00895DC01ED91FC9120812223ECF7DC01DF
S11302F01896ED91FC91199780816115710541F073
S11303002C7121F491E0FB0190830895DB011C9290
S1130310089510928100109285001092840070E07C
S1130320660F771F660F771F660F771F709389001C
S113033060938800B19B02C022E026BB25E0209395
S11303408100DC01ED91FC9108C0B19B06C01092C4
S1130350810082E086BB80E0089520812223ACF7EF
S113036010928100DC011896ED91FC91199780811F
S1130370FA0180832C7181E009F080E00895CF9226
S1130380DF92EF92FF920F931F93CF93DF938C0131
S1130390EB017A01C22ED88060E070E00E94710106
S11303A0F701808381E088838D1570F4A701480FDD
S11303B0511D6C2DC8010E948901882329F0888170
S11303C08F5F88838D1590F3DF91CF911F910F91EB
S11303D0FF90EF90DF90CF900895DC01ED91FC91B8
S11303E01197808180648083ED91FC9111978081C5
S11303F085FFFDCF1896ED91FC91199760830895C0
S1130400DC01ED91FC91808186FF05C080818064D0
S1130410808380E0089581E00895CF93DF93DC0129
S1130420ED91FC9111972081222344F418960D90AC
S1130430BC91A02D8C9180818823E4F3DF91CF912E
S11304400895EF92FF920F931F93CF93DF938C0144
S1130450E62E662351F0C42FD52FF12C6991C801E3
S11304600E94ED01F394FE10F9CFDF91CF911F911B
S11304700F91FF90EF900895CF92DF92EF92FF9249
S113048088EC90E0909313018093120189EC90E042
S113049090931501809314018AEC90E090931701D6
S11304A0809316018CEC90E09093190180931801CD
S11304B08EEC90E090931B0180931A0188E090E009
S11304C00E94F805FC0190931D0180931C010F2EDE
S11304D0F0E9CF2EF0EDDF2EF3E0EF2EF12CF02D2E
S11304E0C082D182E282F38214821582178216823C
S11304F080EC90E0909307018093060181EC90E0FA
S1130500909309018093080182EC90E090930B0191
S113051080930A0184EC90E090930D0180930C0188
S113052086EC90E090930F0180930E0188E090E0B8
S11305300E94F805FC019093110180931001C08280
S1130540D182E282F3821482158217821682FF908E
S1130550EF90DF90CF900895CF9390914C018091CC
S11305604E01892380934C0160914D0180914B0190
S1130570682360934B01C1E062FB662760F96C2736
S113058088E491E00E94760060914B0163FB66274A
S113059060F96C2785E491E00E94760060914B013C
S11305A0629561706C2782E491E00E94760060910C
S11305B04B0165FB662760F96C278FE391E00E948D
S11305C0760060914B0166FB662760F96C278CE32B
S11305D091E00E94760060914B016095661F66274A
S11305E0661F89E391E00E94760060914C016C27BC
S11305F0617086E391E00E94760060914C016695FB
S113060061706C2783E391E00E94760060914C0155
S113061062FB662760F96C2780E391E00E94760014
S113062060914C0163FB662760F96C278DE291E0D1
S11306300E94760060914C01629561706C278AE299
S113064091E00E947600CF91089515B887E084B9AF
S11306501BB81AB81EB81DB811BA10BA14BA13BA16
S113066014BC16BC17BC109280001092810010922A
S113067085001092840010928700109286001092D8
S113068089001092880010928B0010928A001092B8
S11306908D0010928C001092B6001092B00010924F
S11306A0B2001092B3001092900010929100109238
S11306B09500109294001092970010929600109258
S11306C099001092980010929B0010929A00109238
S11306D09D0010929C001092690010926A001DBA4D
S11306E010926E0010926F001092700010927100C0
S11306F080E880BF10927B001092D8009FEF909307
S11307004E018EEF80934D0190934C0180934B01E9
S11307100E94AC020895E8E4F1E082E290E0918363
S1130720808321E020934A01119A0190F081E02D09
S1130730329132603083E5E4F1E09183808332E0EA
S113074030934701129A0190F081E02D4291446068
S11307504083E2E4F1E09183808343E040934401E9
S1130760139A0190F081E02D529158605083EFE389
S1130770F1E09183808354E050934101149A0190F5
S1130780F081E02D529150615083ECE3F1E09183CC
S1130790808355E050933E01159A0190F081E02D3D
S11307A0529150625083E9E3F1E09183808356E0F3
S11307B050933B01169A0190F081E02D52915064C0
S11307C05083E6E3F1E09183808387E080933801EE
S11307D0179A0190F081E02D829180688083E3E391
S11307E0F1E088E290E09183808310923501409A91
S11307F00190F081E02D529151605083E0E3F1E0EB
S11308009183808320933201419A0190F081E02DFD
S1130810529152605083EDE2F1E0918380833093F2
S11308202F01429A0190F081E02D5291546050833F
S1130830EAE2F1E09183808340932C01439A019092
S1130840F081E02D829188608083E7E2F1E085E227
S113085090E091838083409329012B9A0190F08149
S1130860E02D429148604083E4E2F1E0918380838B
S1130870309326012A9A0190F081E02D3291346060
S11308803083E1E2F1E09183808320932301299A6C
S11308900190F081E02D229122602083EEE1F1E0CD
S11308A09183808310922001289A0190F081E02D99
S11308B08291816080830895CF93DF93CDB7DEB7B3
S11308C06B970FB6F894DEBF0FBECDBFE1E6F0E044
S11308D080E8808310820E94250328E230E03E8B6A
S11308E02D8B84E08F8B449AED89FE89629181E09F
S11308F090E0AC010F8802C0440F551F0A94E2F740
S1130900462B40833B8B2A8B25E02C8B459AEA8926
S1130910FB8922910C8802C0880F991F0A94E2F780
S1130920822B8083469A3E9A109A089A1098469889
S113093082E32FEF31EE94E0215030409040E1F714
S113094000C000008150A9F782E191E00E943301C8
S113095086E091E00E94330186E091E09C878B87DA
S1130960CE0145969E878D870397988B8F87ED8957
S1130970FE89408181E090E09C010F8802C0220F33
S1130980331F0A94E2F7209524232083AF85B88986
S1130990ED91FC911197208112960C9002C0880F62
S11309A0991F0A94E2F7822B8083198ACE010B9651
S11309B00E940F058EEE888F8BEB898F0F2EFAE045
S11309C0FF2EF02DFB8EFA8E22E0AE014F5F5F4FBB
S11309D0BE01655E7F4F82E191E00E94BF018E01FE
S11309E0065E1F4F9E012F5F3F4F4B8DB901CE0115
S11309F00B960E94A505882349F0AE014F5F5F4F17
S1130A006A8D82E191E00E942102DCCFAE01485E52
S1130A105F4F62E082E191E00E942102D3CFEF9226
S1130A20FF920F93CF93DF93CDB7DEB72F970FB617
S1130A30F894DEBF0FBECDBF7C018AEF8B8780E3C5
S1130A408C8784E08D8783E48E87AE01455F5F4F9A
S1130A5064E0C7010E949F008AE08F8704E621E0DA
S1130A60AE014F5F5F4FBE01615F7F4FC7010E94C0
S1130A70D300811109C0EFECF7E03197F1F700C022
S1130A800000F701168255C0EFECF7E03197F1F75B
S1130A9000C000002F8530E0B90162507109FE01E9
S1130AA0E60FF71FE181F0E0FE2FEE27DE01A20F33
S1130AB0B31F9C91E90FF11D161617060CF02AC0FE
S1130AC040E050E090E02FEF3FEFA1E0B0E0AC0F4A
S1130AD0BD1FA40FB51F4C912427422F42954227D6
S1130AE0042E469546954025042E4695402547708C
S1130AF0022E232F469507944795302D24270694DC
S1130B004795302524279F5F492F50E04617570704
S1130B10E4F202C02FEF3FEF2E173F0719F49A813A
S1130B20903321F0F701168280E003C091E0F701D1
S1130B3096832F960FB6F894DEBF0FBECDBFDF911C
S1130B40CF910F91FF90EF900895CF92DF92EF92A3
S1130B50FF920F931F93CF93DF937C016901E80108
S1130B60FC01808191810E940D0208EC22E0A60123
S1130B70BE01C7010E94D3008FEC97E00197F1F703
S1130B8000C0000081E09881911101C080E0DF91F4
S1130B90CF911F910F91FF90EF90DF90CF90089528
S1130BA0A1E21A2EAA1BBB1BFD010DC0AA1FBB1F6D
S1130BB0EE1FFF1FA217B307E407F50720F0A21BDF
S1130BC0B30BE40BF50B661F771F881F991F1A944C
S1130BD069F760957095809590959B01AC01BD0176
S1130BE0CF010895EE0FFF1F0590F491E02D0994B5
S1130BF0CF93DF938230910510F482E090E0E0918E
S1130C005101F091520120E030E0A0E0B0E03097D3
S1130C1039F14081518148175907B8F048175907ED
S1130C2071F482819381109729F013969C938E938B
S1130C3012972CC0909352018093510127C0211523
S1130C40310531F04217530718F0A901DB0101C047
S1130C50EF019A01BD01DF010280F381E02DD7CFBE
S1130C6021153105F9F0281B390B2430310580F4A6
S1130C708A819B816115710521F0FB019383828335
S1130C8004C09093520180935101FE01329644C0F6
S1130C90FE01E20FF31F81939193225031093983AE
S1130CA028833AC020914F0130915001232B41F405
S1130CB020910201309103013093500120934F01A0
S1130CC020910001309101012115310541F42DB726
S1130CD03EB74091040150910501241B350BE0916E
S1130CE04F01F0915001E217F307A0F42E1B3F0BC4
S1130CF02817390778F0AC014E5F5F4F241735078A
S1130D0048F04E0F5F1F5093500140934F01819361
S1130D10919302C0E0E0F0E0CF01DF91CF9108951C
S1130D20CF93DF93009709F487C0FC0132971382B5
S1130D301282C0915101D0915201209781F42081F7
S1130D403181280F391F80914F01909150018217F2
S1130D50930779F5F0935001E0934F016DC0DE01E4
S1130D6020E030E0AE17BF0750F412964D915C912D
S1130D7013979D014115510509F1DA01F3CFB383AE
S1130D80A28340815181840F951F8A179B0771F4B8
S1130D908D919C911197840F951F02969183808366
S1130DA012968D919C91139793838283211531051B
S1130DB029F4F0935201E09351013EC0D9011396F6
S1130DC0FC93EE9312974D915D91A40FB51FEA1712
S1130DD0FB0779F480819181840F951F0296D901D4
S1130DE011969C938E938281938113969C938E93F8
S1130DF01297E0E0F0E08A819B81009719F0FE01F0
S1130E00EC01F9CFCE01029628813981820F931F1C
S1130E1020914F01309150012817390769F4309718
S1130E2029F4109252011092510102C013821282CD
S1130E30D0935001C0934F01DF91CF910895F8945E
S1050E40FFCFDE
S1090E4200005301200032
S9030000FC
